{
  "contractName": "FrajBox",
  "abi": [
    {
      "inputs": [],
      "payable": false,
      "stateMutability": "nonpayable",
      "type": "constructor"
    },
    {
      "anonymous": false,
      "inputs": [
        {
          "indexed": false,
          "internalType": "uint256",
          "name": "fileId",
          "type": "uint256"
        },
        {
          "indexed": false,
          "internalType": "string",
          "name": "fileHash",
          "type": "string"
        },
        {
          "indexed": false,
          "internalType": "uint256",
          "name": "fileSize",
          "type": "uint256"
        },
        {
          "indexed": false,
          "internalType": "string",
          "name": "fileType",
          "type": "string"
        },
        {
          "indexed": false,
          "internalType": "string",
          "name": "fileName",
          "type": "string"
        },
        {
          "indexed": false,
          "internalType": "string",
          "name": "fileDescription",
          "type": "string"
        },
        {
          "indexed": false,
          "internalType": "uint256",
          "name": "uploadTime",
          "type": "uint256"
        },
        {
          "indexed": false,
          "internalType": "address payable",
          "name": "uploader",
          "type": "address"
        }
      ],
      "name": "FileUploaded",
      "type": "event"
    },
    {
      "constant": true,
      "inputs": [],
      "name": "fileCount",
      "outputs": [
        {
          "internalType": "uint256",
          "name": "",
          "type": "uint256"
        }
      ],
      "payable": false,
      "stateMutability": "view",
      "type": "function"
    },
    {
      "constant": true,
      "inputs": [
        {
          "internalType": "uint256",
          "name": "",
          "type": "uint256"
        }
      ],
      "name": "files",
      "outputs": [
        {
          "internalType": "uint256",
          "name": "fileId",
          "type": "uint256"
        },
        {
          "internalType": "string",
          "name": "fileHash",
          "type": "string"
        },
        {
          "internalType": "uint256",
          "name": "fileSize",
          "type": "uint256"
        },
        {
          "internalType": "string",
          "name": "fileType",
          "type": "string"
        },
        {
          "internalType": "string",
          "name": "fileName",
          "type": "string"
        },
        {
          "internalType": "string",
          "name": "fileDescription",
          "type": "string"
        },
        {
          "internalType": "uint256",
          "name": "uploadTime",
          "type": "uint256"
        },
        {
          "internalType": "address payable",
          "name": "uploader",
          "type": "address"
        }
      ],
      "payable": false,
      "stateMutability": "view",
      "type": "function"
    },
    {
      "constant": true,
      "inputs": [],
      "name": "manager",
      "outputs": [
        {
          "internalType": "address",
          "name": "",
          "type": "address"
        }
      ],
      "payable": false,
      "stateMutability": "view",
      "type": "function"
    },
    {
      "constant": true,
      "inputs": [],
      "name": "name",
      "outputs": [
        {
          "internalType": "string",
          "name": "",
          "type": "string"
        }
      ],
      "payable": false,
      "stateMutability": "view",
      "type": "function"
    },
    {
      "constant": false,
      "inputs": [
        {
          "internalType": "string",
          "name": "_fileHash",
          "type": "string"
        },
        {
          "internalType": "uint256",
          "name": "_fileSize",
          "type": "uint256"
        },
        {
          "internalType": "string",
          "name": "_fileType",
          "type": "string"
        },
        {
          "internalType": "string",
          "name": "_fileName",
          "type": "string"
        },
        {
          "internalType": "string",
          "name": "_fileDescription",
          "type": "string"
        }
      ],
      "name": "uploadFile",
      "outputs": [],
      "payable": false,
      "stateMutability": "nonpayable",
      "type": "function"
    }
  ],
  "bytecode": "0x60806040526040518060400160405280600781526020017f4672616a426f78000000000000000000000000000000000000000000000000008152506001908051906020019061004f9291906100a7565b50600060025534801561006157600080fd5b50336000806101000a81548173ffffffffffffffffffffffffffffffffffffffff021916908373ffffffffffffffffffffffffffffffffffffffff16021790555061014c565b828054600181600116156101000203166002900490600052602060002090601f016020900481019282601f106100e857805160ff1916838001178555610116565b82800160010185558215610116579182015b828111156101155782518255916020019190600101906100fa565b5b5090506101239190610127565b5090565b61014991905b8082111561014557600081600090555060010161012d565b5090565b90565b610f4a8061015b6000396000f3fe608060405234801561001057600080fd5b50600436106100575760003560e01c806306fdde031461005c57806343953519146100df578063481c6a75146100fd578063e82d9d3314610147578063f4c714b4146103d1575b600080fd5b610064610604565b6040518080602001828103825283818151815260200191508051906020019080838360005b838110156100a4578082015181840152602081019050610089565b50505050905090810190601f1680156100d15780820380516001836020036101000a031916815260200191505b509250505060405180910390f35b6100e76106a2565b6040518082815260200191505060405180910390f35b6101056106a8565b604051808273ffffffffffffffffffffffffffffffffffffffff1673ffffffffffffffffffffffffffffffffffffffff16815260200191505060405180910390f35b6103cf600480360360a081101561015d57600080fd5b810190808035906020019064010000000081111561017a57600080fd5b82018360208201111561018c57600080fd5b803590602001918460018302840111640100000000831117156101ae57600080fd5b91908080601f016020809104026020016040519081016040528093929190818152602001838380828437600081840152601f19601f820116905080830192505050505050509192919290803590602001909291908035906020019064010000000081111561021b57600080fd5b82018360208201111561022d57600080fd5b8035906020019184600183028401116401000000008311171561024f57600080fd5b91908080601f016020809104026020016040519081016040528093929190818152602001838380828437600081840152601f19601f820116905080830192505050505050509192919290803590602001906401000000008111156102b257600080fd5b8201836020820111156102c457600080fd5b803590602001918460018302840111640100000000831117156102e657600080fd5b91908080601f016020809104026020016040519081016040528093929190818152602001838380828437600081840152601f19601f8201169050808301925050505050505091929192908035906020019064010000000081111561034957600080fd5b82018360208201111561035b57600080fd5b8035906020019184600183028401116401000000008311171561037d57600080fd5b91908080601f016020809104026020016040519081016040528093929190818152602001838380828437600081840152601f19601f8201169050808301925050505050505091929192905050506106cd565b005b6103fd600480360360208110156103e757600080fd5b8101908080359060200190929190505050610b7e565b60405180898152602001806020018881526020018060200180602001806020018781526020018673ffffffffffffffffffffffffffffffffffffffff1673ffffffffffffffffffffffffffffffffffffffff16815260200185810385528c818151815260200191508051906020019080838360005b8381101561048d578082015181840152602081019050610472565b50505050905090810190601f1680156104ba5780820380516001836020036101000a031916815260200191505b5085810384528a818151815260200191508051906020019080838360005b838110156104f35780820151818401526020810190506104d8565b50505050905090810190601f1680156105205780820380516001836020036101000a031916815260200191505b50858103835289818151815260200191508051906020019080838360005b8381101561055957808201518184015260208101905061053e565b50505050905090810190601f1680156105865780820380516001836020036101000a031916815260200191505b50858103825288818151815260200191508051906020019080838360005b838110156105bf5780820151818401526020810190506105a4565b50505050905090810190601f1680156105ec5780820380516001836020036101000a031916815260200191505b509c5050505050505050505050505060405180910390f35b60018054600181600116156101000203166002900480601f01602080910402602001604051908101604052809291908181526020018280546001816001161561010002031660029004801561069a5780601f1061066f5761010080835404028352916020019161069a565b820191906000526020600020905b81548152906001019060200180831161067d57829003601f168201915b505050505081565b60025481565b6000809054906101000a900473ffffffffffffffffffffffffffffffffffffffff1681565b3373ffffffffffffffffffffffffffffffffffffffff166000809054906101000a900473ffffffffffffffffffffffffffffffffffffffff1673ffffffffffffffffffffffffffffffffffffffff1614610772576040517f08c379a000000000000000000000000000000000000000000000000000000000815260040180806020018281038252602a815260200180610eec602a913960400191505060405180910390fd5b600085511161078057600080fd5b600083511161078e57600080fd5b600081511161079c57600080fd5b60008251116107aa57600080fd5b600073ffffffffffffffffffffffffffffffffffffffff163373ffffffffffffffffffffffffffffffffffffffff1614156107e457600080fd5b600084116107f157600080fd5b60026000815480929190600101919050555060405180610100016040528060025481526020018681526020018581526020018481526020018381526020018281526020014281526020013373ffffffffffffffffffffffffffffffffffffffff16815250600360006002548152602001908152602001600020600082015181600001556020820151816001019080519060200190610890929190610e46565b506040820151816002015560608201518160030190805190602001906108b7929190610e46565b5060808201518160040190805190602001906108d4929190610e46565b5060a08201518160050190805190602001906108f1929190610e46565b5060c0820151816006015560e08201518160070160006101000a81548173ffffffffffffffffffffffffffffffffffffffff021916908373ffffffffffffffffffffffffffffffffffffffff1602179055509050507f6e95bbaa37a5fdec42a312e049dea2fe6160ebe659214d3409b4f91f164c2f526002548686868686423360405180898152602001806020018881526020018060200180602001806020018781526020018673ffffffffffffffffffffffffffffffffffffffff1673ffffffffffffffffffffffffffffffffffffffff16815260200185810385528c818151815260200191508051906020019080838360005b83811015610a015780820151818401526020810190506109e6565b50505050905090810190601f168015610a2e5780820380516001836020036101000a031916815260200191505b5085810384528a818151815260200191508051906020019080838360005b83811015610a67578082015181840152602081019050610a4c565b50505050905090810190601f168015610a945780820380516001836020036101000a031916815260200191505b50858103835289818151815260200191508051906020019080838360005b83811015610acd578082015181840152602081019050610ab2565b50505050905090810190601f168015610afa5780820380516001836020036101000a031916815260200191505b50858103825288818151815260200191508051906020019080838360005b83811015610b33578082015181840152602081019050610b18565b50505050905090810190601f168015610b605780820380516001836020036101000a031916815260200191505b509c5050505050505050505050505060405180910390a15050505050565b6003602052806000526040600020600091509050806000015490806001018054600181600116156101000203166002900480601f016020809104026020016040519081016040528092919081815260200182805460018160011615610100020316600290048015610c305780601f10610c0557610100808354040283529160200191610c30565b820191906000526020600020905b815481529060010190602001808311610c1357829003601f168201915b505050505090806002015490806003018054600181600116156101000203166002900480601f016020809104026020016040519081016040528092919081815260200182805460018160011615610100020316600290048015610cd45780601f10610ca957610100808354040283529160200191610cd4565b820191906000526020600020905b815481529060010190602001808311610cb757829003601f168201915b505050505090806004018054600181600116156101000203166002900480601f016020809104026020016040519081016040528092919081815260200182805460018160011615610100020316600290048015610d725780601f10610d4757610100808354040283529160200191610d72565b820191906000526020600020905b815481529060010190602001808311610d5557829003601f168201915b505050505090806005018054600181600116156101000203166002900480601f016020809104026020016040519081016040528092919081815260200182805460018160011615610100020316600290048015610e105780601f10610de557610100808354040283529160200191610e10565b820191906000526020600020905b815481529060010190602001808311610df357829003601f168201915b5050505050908060060154908060070160009054906101000a900473ffffffffffffffffffffffffffffffffffffffff16905088565b828054600181600116156101000203166002900490600052602060002090601f016020900481019282601f10610e8757805160ff1916838001178555610eb5565b82800160010185558215610eb5579182015b82811115610eb4578251825591602001919060010190610e99565b5b509050610ec29190610ec6565b5090565b610ee891905b80821115610ee4576000816000905550600101610ecc565b5090565b9056fe4f6e6c7920746865206d616e6167657220697320616c6c6f77656420746f2064726f702066696c65732ea265627a7a72315820bded3f770d645ed79207b2eafbf4840188358d7bd543455738550b29f01fdb7264736f6c63430005100032",
  "source": "pragma solidity ^0.5.0;\r\n\r\ncontract FrajBox {\r\n    address public manager;\r\n    string public name = \"FrajBox\";\r\n    uint256 public fileCount = 0;\r\n    mapping(uint256 => File) public files;\r\n\r\n    // Struct\r\n    struct File {\r\n        uint256 fileId;\r\n        string fileHash;\r\n        uint256 fileSize;\r\n        string fileType;\r\n        string fileName;\r\n        string fileDescription;\r\n        uint256 uploadTime;\r\n        address payable uploader;\r\n    }\r\n\r\n    // Event\r\n    event FileUploaded(\r\n        uint256 fileId,\r\n        string fileHash,\r\n        uint256 fileSize,\r\n        string fileType,\r\n        string fileName,\r\n        string fileDescription,\r\n        uint256 uploadTime,\r\n        address payable uploader\r\n    );\r\n\r\n    constructor() public {\r\n        manager = msg.sender;\r\n    }\r\n\r\n    function uploadFile(\r\n        string memory _fileHash,\r\n        uint256 _fileSize,\r\n        string memory _fileType,\r\n        string memory _fileName,\r\n        string memory _fileDescription\r\n    ) public {\r\n        // Make sure you're the manager\r\n        require(\r\n            manager == msg.sender,\r\n            \"Only the manager is allowed to drop files.\"\r\n        );\r\n        // Make sure the file hash exists\r\n        require(bytes(_fileHash).length > 0);\r\n        // Make sure file type exists\r\n        require(bytes(_fileType).length > 0);\r\n        // Make sure file description exists\r\n        require(bytes(_fileDescription).length > 0);\r\n        // Make sure file fileName exists\r\n        require(bytes(_fileName).length > 0);\r\n        // Make sure uploader address exists\r\n        require(msg.sender != address(0));\r\n        // Make sure file size is more than 0\r\n        require(_fileSize > 0);\r\n\r\n        // Add File to the contract\r\n        fileCount++;\r\n        files[fileCount] = File(\r\n            fileCount,\r\n            _fileHash,\r\n            _fileSize,\r\n            _fileType,\r\n            _fileName,\r\n            _fileDescription,\r\n            now,\r\n            msg.sender\r\n        );\r\n\r\n        // Trigger an event\r\n        emit FileUploaded(\r\n            fileCount,\r\n            _fileHash,\r\n            _fileSize,\r\n            _fileType,\r\n            _fileName,\r\n            _fileDescription,\r\n            now,\r\n            msg.sender\r\n        );\r\n    }\r\n}\r\n",
  "sourcePath": "C:/Users/benfr/Documents/coding/blockchain/projects/frajbox/src/contracts/FrajBox.sol",
  "compiler": {
    "name": "solc",
    "version": "0.5.16+commit.9c3226ce.Emscripten.clang"
  },
  "schemaVersion": "3.3.1",
  "updatedAt": "2022-03-29T10:23:51.108Z",
  "networkType": "ethereum",
  "devdoc": {
    "methods": {}
  },
  "userdoc": {
    "methods": {}
  }
}